:020000040800F2
:1000000000050020C50000088D0600088B060008CA
:1000100000000000000000000000000000000000E0
:100020000000000000000000000000009907000828
:1000300000000000000000008F0600089D07000877
:10004000D700000800000000D7000008D700000813
:10005000D700000865010008D700000875010008F6
:1000600000000000D700000859010008D700000870
:10007000D7000008D7000008D700000800000000E3
:10008000D70000080000000000000000D7000008B2
:1000900000000000D7000008B1070008D7000008E2
:1000A00000000000D700000800000000D700000892
:1000B0000348854600F014F800480047CD070008C3
:1000C000000500200448804704480047FEE7FEE79B
:1000D000FEE7FEE7FEE7FEE7AD070008B100000817
:1000E000064C0125064E05E0E36807CC2B430C3C8B
:1000F00098471034B442F7D3FFF7DEFF740D0008C1
:10010000940D000830B50B46014600202022012442
:1001100009E00D46D5409D4205D31D469540491B3B
:100120002546954040191546521E002DF1DC30BD84
:1001300070B500242546002801DA01244042002938
:1001400001DA01254942FFF7DDFFAC4200D0404211
:10015000002C00D0494270BD80B5C74800F014F8AB
:1001600080BDC04607480168C90701D00121016070
:100170007047C04603480168890502D5012149023C
:100180000160704714040140F0B581B0C16B036C8D
:1001900000910C68026815686E0714D504210F469B
:1001A0009F403E462640002E0DD013689B0602D489
:1001B00013688B43136000994F60C16A002939D0DE
:1001C000884701B0F0BDA9071AD502269E403146E6
:1001D0002140002914D01168890606D411680A2329
:1001E0009943116021210122425400994E6020213F
:1001F00000224254816A00291CD0884701B0F0BD1A
:10020000290717D5082199402140002912D01168EB
:100210000E24A143116001210A469A40009B5A60B6
:10022000202200238354816321228154016B002901
:1002300000D0884701B0F0BDF0B58AB00A68002A46
:1002400000D1AFE004465848844201D0052000E0C8
:1002500003200090012000231F46029005460491D0
:1002600008930695681E029E079086403240002A39
:1002700000D18CE0059703924A68102010431228A1
:1002800010D10D461C20059908400F218140079A86
:10029000D3089B00E3181F6A8F43296981403943C3
:1002A00019626A6803210846089DA84023688343B1
:1002B000174601910F40AF401F432760C043122AE9
:1002C00013D8012393403B490B420ED0A36803404F
:1002D0000499CF68AF401F43A760D306DB0F07998F
:1002E0008B406768B7431F436760E3680340049926
:1002F0008868A8401843E060D000039D059F46D55C
:100300002B4802460068012108431060106808402D
:1003100009900C263E400F23B340079F0198874366
:1003200009982548024638589843BF180923DB0628
:100330009C4208D0214A944206D021498C4200991F
:1003400002D1022100E00021B14001433960174E83
:10035000326804994868C30301D52A4300E0AA43E0
:10036000059F32607268830301D52A4300E0AA43E7
:100370007260B268C30201D52A4300E0AA43B260AA
:10038000F268800201D52A4300E0AA43F2600A68BD
:100390001046069DE840089B9B1C3F1D6D1C0028D5
:1003A00000D05DE70AB0F0BD000C00480004014039
:1003B0001810024006000600080001400004004832
:1003C00000080048F0B589B0044600250895079557
:1003D00006950595049500682549884201D009B025
:1003E000F0BD0126300323494A6802434A604A6847
:1003F00002400392039870040A6802430A60096885
:100400000140039103980895032007900695022761
:100410000597B02004900920C00604A9FFF70CFF3F
:100420002121029114484754B102019137028023DF
:100430001021124A026041608560C3600761019922
:1004400041618561C56111680D4B0B40592109015E
:100450005918116020214554856302994654303A59
:100460000821C26301646065446209B0F0BDC04602
:100470000030014014100240100000203000024003
:100480000FC0FFFFF0B585B05C22504B9C5C012C87
:1004900000D198E001249C545D255E5D012E00D0C2
:1004A0008FE0002800D18CE0032603955E55442799
:1004B0000026DE531E66D9874627DE5399870290B1
:1004C00098631E64DE641E651868E1039F688F42AE
:1004D00003D1A10307680F4307605F6D3C4D3D49A1
:1004E000B9623D49F9623D637E6341683B4D2940F5
:1004F000049041603946203107252D02D868A84272
:100500001AD8A0027D69854216D1DD8F0498406813
:100510000190E80707D13148019D054004984560E6
:10052000D88F400807E0A003019D0543049845606B
:10053000D88F4008401CD887DD8F087801283AD032
:100540000C704878012835D10095049D0C350220A7
:1005500001904870BE6339680868A0430860F86B72
:100560003E6C0394B4404460009848607E68102E4E
:100570002F46029800D007468F60102E00D02846E4
:10058000C86008680E2404430C600868039C20437C
:100590000860049C2068400603D420684021014381
:1005A000216060682021014361606068019908430F
:1005B000606006E00E70186E102101431966039802
:1005C0001C540020985405B0F0BDC04654000020D3
:1005D00091060008B1060008AD060008FFBFFFFF46
:1005E0008021C943026813699B0708D5D3689B071C
:1005F00005D50B467E331361936900230377136996
:100600005B0708D5D3685B0705D50B467C331361C0
:1006100093690023037713691B0708D5D3681B0769
:1006200005D50B4678331361D3690023037713692B
:10063000DB0608D5D368DB0605D50B46703313619E
:10064000D369002303771069C00705D0D068C007BD
:1006500002D008467F3010611069000603D5D068CB
:10066000000600D511611069400605D5D068400626
:1006700002D50846403010611069800604D5D06864
:10068000800601D5603111617047FEE77047704701
:10069000406A01684A6803239A434A60016E102247
:1006A0000A4302665D2101224254704770470000F0
:1006B000F0B581B0416A3C4B1C6800680068800658
:1006C00067D408684568202295434560456802263E
:1006D000B543456003258668F604B60F07D0EE02E1
:1006E0001F683F1B642F18D287683742F8D186688D
:1006F000360604D51E68361B642EF8D30DE08668D6
:100700007605B60F35D06D02067B1E68361B632E4C
:1007100003D886682E42F7D12BE04368E024A34338
:10072000436041239B004C689C420BD18B680124A1
:10073000E503AB4202D0A402A34203D103684024E4
:10074000A343036001235B038C6A9C4205D10468C8
:100750009C43046004681C4304605D230124CC5462
:100760005C230024CC540B6E13430B660B6E1343B7
:100770000B668A68002A06D100220092C2680092A5
:100780008068009000980020C8875D2001220A54EC
:10079000086E01B0F0BDC046704700000248016815
:1007A000491C01607047C046FC00002070470000F3
:1007B00080B504480168491C01600348FFF710FF39
:1007C00080BDC046F8000020B800002092B0CB4E9B
:1007D00030681021014331607D20C100C8480068A5
:1007E0000691FFF78FFC401E010E11D1C5494860EC
:1007F000C5480268C54B1C461A4003239B07D21804
:10080000026000228A6007220A60016821400160BC
:10081000BF4C6069012738436061606938400D90C2
:100820000D983807A1690143A161A16901400D91AB
:100830000D98780621680907890F15D021680C22C8
:100840000A40082A02D12168C9030DD5211F0A6870
:100850003A430A60AF4A13680D68AD0706D41568BD
:10086000ED1A022DF8D938E0211F0A680A688023A2
:100870001343782293430B6021680C220A40082A14
:1008800002D12168A16A28E001210A06211F0B6814
:1008900093430B609F4A13680D68054204D01568A6
:1008A000ED1A022DF8D918E0A36A0F25AB43A36215
:1008B0003D231B0425689D430523DB04EB182360BF
:1008C000FB4B5B1C0D681D430D6013680D680542F2
:1008D00003D11568ED1A022DF8D907210B910902F1
:1008E00009913168C90706D1316801220A43326093
:1008F0003168C9075BD02168099A114321602168DA
:10090000F02291432160211F096801424FD02068E5
:1009100002210143B9432160E9480268E94B256897
:100920000C210D40082D04D00168891A9942F6D98E
:100930003DE030682068099A9043206022681140A9
:10094000E14808290DD19102090FE0A35D5CA16A7D
:10095000D20308D50F221140E0A2515CFFF7D2FB71
:1009600002E0054601E0E148454320680006000F2B
:10097000DFA1085CC540CD48056028460699FFF711
:10098000C1FB401ECA49884211D8CA494860CA48BA
:100990000268C74B1D461A4003239B07D21802600A
:1009A00000228A600B9A0A600168294001600025D4
:1009B00011951095B90520690843206120690191BE
:1009C00008400C900C987804216901432161216949
:1009D00001400C910C9809200590C606B8020890B9
:1009E000B0620F95C6480E900D97C6480DAC2146D3
:1009F000FFF722FC0F95C2480E9078020A900D90E6
:100A000030462146FFF718FC0320039010900F9505
:100A10000E9708980D90049630462146FFF70CFC7F
:100A2000FF200002B84A116881431160B74B2020B3
:100A3000186010689E490840106080200790186078
:100A40009E49086938430861086938400D900D983F
:100A50005068AF490840506008981860AD4E0821B2
:100A600030220297BC040F2007020A9BFC3BAA48D5
:100A7000A9C6356075600094B460F2603561756137
:100A8000103EB5620B9AF262356371635D24315D8D
:100A9000002908D0022131550168402291430160AC
:100AA00039460A9F20E05C20002535543046FFF788
:100AB00089FC02203055F1683068026840239A436F
:100AC0000260099B994200D901259942029504D9F7
:100AD0000025B9420A9F05D106E00122150399427B
:100AE0000A9F01D00022B2620994326B002A15D10C
:100AF000029A002A10D101220FE0C04600200240D5
:100B00000000002010E000E020ED00E0FFFFFF000B
:100B100004100240FC00002002223263B269174038
:100B20007368B4681C433369234374691C433C43B2
:100B3000F3692343346A1C43B36A234303600D43C0
:100B4000110C04220A402A43716A1143726B0A4352
:100B500042600127F902C2698A43C26100243466F7
:100B6000099837546D49089A183A2F236C4819C1CF
:100B70000A604C600A948C60079ECE603D220C395E
:100B80008B5C002B15D13C230024CC544B4B1C46D2
:100B90005B69009D2B43636163692B400D930D9B43
:100BA000594B1C461B695A4D2B402361019B574CE6
:100BB000236002238B540B9DEB0104689C430B695B
:100BC000B34323438C691C430460CB68C3624B6806
:100BD00083624B69036347618F54C1683943C160C5
:100BE00081682940062902D00168394301600297D3
:100BF0004C480821FFF746FC4D4E4E4D0A9C2746B7
:100C000001E0079844400A940A240B943846214690
:100C1000FFF78EFA09902146FFF78AFA4248405CB6
:100C20003C46029F79024018404948802046069978
:100C3000FFF77EFA0B99FFF77BFA3B4B585CB90242
:100C400040183A4AD0800598C04309994843001992
:100C5000185C390227464018108064212046FFF7AF
:100C600067FA0B990A9CFFF763FA2F48405C204310
:100C70000399090201432D4881802120305C02281C
:100C8000FBD004212948FFF7FDFB2868FA302968CA
:100C90008142FCD304994869089A504048617F1CFE
:100CA00025488742ADD10027ABE7C04600000020B1
:100CB000FFFFFF0010E000E020ED00E00410024024
:100CC000FC0000208813000000127A0002030405D3
:100CD000060708090A0B0C0D0E0F10100102030481
:100CE00005060708090A0B0C0D0E0F1000093D0040
:100CF00000000000000000000102030406070809CC
:100D0000000011100014004804E400E000E100E0DD
:100D1000FFFF00FF5400002000300140B800002019
:100D2000004801405A0D00086A0D00080800002024
:100D300010000020F80000200F27000002E008C883
:100D4000121F08C1002AFAD170477047002001E045
:100D500001C1121F002AFBD17047010C030B0F0ABF
:100D60000009FF01F0020F0301047E306D79335B4F
:100D70005F707F7B980D00080000002008000000D5
:100D80003C0D0008A00D000808000020F804000039
:100D90004C0D00080000000000127A000000000066
:04000005080000B13E
:00000001FF
